:020000040000FA
:100000000C94BD010C94EE010C94EE010C94EE01E5
:100010000C94EE010C94EE010C94EE010C94EE01A4
:100020000C94EE010C94EE010C94EE010C94EE0194
:100030000C94EE010C94EE010C94EE010C94EE0184
:100040000C94EE010C94EE010C94EE010C94EE0174
:100050000C94EE010C94EE010C94EE010C94BC0A8D
:100060000C94EE010C94300B0C94060B0C94EE01E6
:100070000C94EE010C94EE010C94EE010C94EE0144
:100080000C94EE010C94EE010C94EE010C94EE0134
:100090000C94EE010C94EE010C94EE010C94660BA2
:1000A0000C94EE010C94EE010C94EE010C94EE0114
:1000B0000C94EE010C94EE010C94EE010C94EE0104
:1000C0000C94EE010C94EE010C94EE010C94EE01F4
:1000D0000C94EE010C94EE010C94EE010C94EE01E4
:1000E0000C94EE0108000000BE922449123EABAA17
:1000F000AA2ABECDCCCC4C3E00000080BEABAAAA42
:10010000AA3E00000000BF000000803F0000000089
:1001100000084178D3BB4387D1133D190E3CC3BDC2
:100120004282AD2B3E68EC8276BED98FE1A93E4C6F
:1001300080EFFFBE01C4FF7F3F00000000000C9471
:1001400069020C945F0A0C942F030C94D2050C9452
:10015000C6030C94F6090C9449020C9464020C94A6
:1001600026100C942A020C94E1050C9428060C9499
:1001700051020C9436020C948A0C0C94E90F0C94E6
:10018000DB0F0C94F4050C9493060C943F100C9424
:100190008E0A0C9443020C948E030C9433040C943A
:1001A0002E030C944D020C9465020C941B100C94BD
:1001B00030030C94FB050C9424020C945F020C9405
:1001C000EB090C945D030C9432100C9432020C94E5
:1001D000D1050C946C030C945B020C94170A0C94DC
:1001E000EF0F0C9480030C9457020C9439020C947A
:1001F0002E020C94B40A0C943F020000200023004D
:10020000260029002C002F0032000001000003010D
:10021000060109014C4344206E6F7420666F756EB1
:1002200064202D206D61792076616E20636861798C
:100230002C20636869206B686F6E67206869656E43
:1002400020746869002C6F75743D002C626F696CB6
:1002500065723D002C74616E6B3D002C646F6F7293
:100260003D002C74656D703D002C73746174653DA8
:100270000000002100240027002A002D0030003358
:100280000001010000040107010A0100002200250D
:100290000028002B002E0031003400020100000570
:1002A0000108010B010505050507050808080802F6
:1002B0000202020A0A0808040404040101010101FF
:1002C0000101010303030303030303040707070CEE
:1002D0000C0C0C0C0C0C0C020202020606060606A4
:1002E0000606060B0B0B0B0B0B0B0B010210202051
:1002F000080810204010204080020102010804027A
:1003000001010204081020408080402010080402EF
:100310000180040201804020100804020108040248
:10032000010102040810204080010204081020404E
:100330008000000A0B02090C0D0E080703040100DF
:1003400000000000000000000000000000000000AD
:10035000000000000000000000000000001211106A
:10036000000000000000000000000000000000008D
:1003700000000000000000008A0C11241FBECFEF17
:10038000D1E2DEBFCDBF00E00CBF13E0A0E0B2E0E1
:10039000E0E8F0E300E00BBF02C007900D92AA3244
:1003A000B107D9F724E0AAE2B3E001C01D92A83E4C
:1003B000B207E1F711E0CDEBD1E000E006C02197F4
:1003C0000109802FFE010E942F15CC3BD10780E050
:1003D0000807A9F70E94C30C0C943E180C94000067
:1003E00080917B00877F80937B0080E480937C00FA
:1003F00080917A00806480937A0080917A0086FDF3
:10040000FCCF8091780090917900089581508231DD
:1004100008F05AC0E82FF0E08827EE5EFD4F8F4FBE
:100420000C942F153202360224022A022E02640294
:1004300039023F02430249024D02510257025B0258
:1004400064025F0265026902809180008F77809369
:1004500080000895809180008F7DF9CF8091800089
:10046000877FF5CF84B58F7784BD089584B58F7D60
:10047000FBCF8091B0008F778093B000089580917A
:10048000B0008F7DF9CF809190008F77809390009E
:100490000895809190008F7DF9CF80919000877FA3
:1004A000F5CF8091A0008F778093A0000895809170
:1004B000A0008F7DF9CF8091A000877FF5CF80913C
:1004C00020018F77809320010895809120018F7DF6
:1004D000F9CF80912001877FF5CF1F93CF93DF93D2
:1004E000282F30E0F901EF5CFC4F8491F901E551D0
:1004F000FD4FD491F901EB55FD4FC491CC23A9F0E8
:10050000162F81110E940602EC2FF0E0EE0FFF1F64
:10051000E557FD4FA591B4918FB7F894EC91111167
:1005200008C0D095DE23DC938FBFDF91CF911F9160
:100530000895DE2BF8CFCF93DF9390E0FC01E551D7
:10054000FD4F24918B559D4FFC0184918823C9F068
:1005500090E0880F991FFC01EF58FD4FA591B491D1
:10056000FC01E557FD4FC591D49161110DC09FB7B6
:10057000F8948C91209582238C938881282328835A
:100580009FBFDF91CF910895623051F49FB7F894E7
:100590003C91822F809583238C93E8812E2BEFCF83
:1005A0008FB7F894EC912E2B2C938FBFEACF3FB7E7
:1005B000F8948091C1039091C203A091C303B091BC
:1005C000C40326B5A89B05C02F3F19F00196A11DB5
:1005D000B11D3FBFBA2FA92F982F8827BC01CD018D
:1005E000620F711D811D911D42E0660F771F881FEC
:1005F000991F4A95D1F708958F929F92AF92BF921B
:10060000CF92DF92EF92FF924B015C010E94D702E2
:100610006B017C010E94D7026C197D098E099F092C
:10062000683E734081059105A8F321E0821A910884
:10063000A108B10888EEC80E83E0D81EE11CF11CA9
:1006400081149104A104B10429F7FF90EF90DF9089
:10065000CF90BF90AF909F908F9008950895089588
:10066000AF92BF92CF92DF92EF92FF920F931F93C0
:10067000CF93DF936C017B018B01040F151FEB01FE
:100680005E01AE18BF08C017D10759F06991D601B5
:10069000ED91FC910190F081E02DC6011995892B17
:1006A00079F7C501DF91CF911F910F91FF90EF90E6
:1006B000DF90CF90BF90AF900895FC01538D448D93
:1006C000252F30E0842F90E0821B930B541710F0FD
:1006D000CF96089501970895FC01918D828D98170A
:1006E00061F0A28DAE0FBF2FB11D5D968C91928DE2
:1006F0009F5F9F73928F90E008958FEF9FEF089513
:10070000FC01918D828D981731F0828DE80FF11DDB
:10071000858D90E008958FEF9FEF0895FC01918DF6
:10072000228D892F90E0805C9F4F821B91098F73EF
:10073000992708958FE394E00E948E0321E0892B8E
:1007400009F420E0822F0895FC01A48DA80FB92F91
:10075000B11DA35ABF4F2C91848D90E001968F73E9
:100760009927848FA689B7892C93A089B1898C9108
:10077000837080648C93938D848D981306C0028857
:10078000F389E02D80818F7D80830895EF92FF9221
:100790000F931F93CF93DF93EC0181E0888F9B8DA4
:1007A0008C8D98131AC0E889F989808185FF15C05E
:1007B0009FB7F894EE89FF896083E889F989808181
:1007C0008370806480839FBF81E090E0DF91CF9150
:1007D0001F910F91FF90EF900895F62E0B8D10E072
:1007E0000F5F1F4F0F731127E02E8C8D8E110CC0E1
:1007F0000FB607FCFACFE889F989808185FFF5CF2C
:10080000CE010E94A403F1CFEB8DEC0FFD2FF11D63
:10081000E35AFF4FF0829FB7F8940B8FEA89FB8968
:1008200080818062CFCF682F8FE394E00C94C60361
:100830000F931F93CF93DF938C01D0E0C0E0F801BA
:10084000EC0FFD1F6491662341F08FE394E00E945A
:10085000C603892B11F02196F2CFCE01DF91CF9103
:100860001F910F910895CF93DF93EC01888D88231A
:10087000B9F0AA89BB89E889F9898C9185FD03C003
:10088000808186FD0DC00FB607FCF7CF8C9185FFE8
:10089000F2CF808185FFEDCFCE010E94A403E9CF86
:1008A000DF91CF91089580E090E0892B29F00E949C
:1008B0009A0381110E94000080E090E0892B49F0AA
:1008C00080E090E0892B29F00E94000081110E94B5
:1008D000000080E090E0892B49F080E090E0892BD7
:1008E00029F00E94000081110E94000080E090E049
:1008F000892B49F080E090E0892B29F00E940000CC
:1009000081110C940000089520916B03260F33276A
:10091000331F21323105ECF420911504FC0190E0E5
:1009200080E0243069F082E00895A0916B0321916A
:10093000AC01455B5C4FA40FB52FB11D2C93019604
:10094000861798F380916B03680F60936B0380E0C8
:10095000089581E008951092150481E080931404B5
:100960001092EF0361E084E10E946D0261E085E195
:100970000E946D02E9EBF0E080818E7F80838081B0
:100980008D7F808388E48093B80085E48093BC00E9
:100990000895CF93DF9391E090934A038823B9F0B1
:1009A000C091B800D091BA008091BC008A7B80933E
:1009B000BC0060E084E10E946D0260E085E10E947D
:1009C0006D020E94AB04D093BA00C093B800DF91CF
:1009D000CF910895CF92DF92EF92FF920F931F93E2
:1009E000CF93DF93D0913E0481E0D13208F09CC0D8
:1009F000C0913D040E94D7026B017C0180911504D7
:100A000081116CC082E08093150481E0809314040E
:100A10008FEF8093130410921204D0931104ADE170
:100A2000B4E0E1EFF3E080E0D8138DC01092F00362
:100A30008091F003CC0FC82BC093F0038091EF039B
:100A4000813009F084C01092EF030E94D7026B013D
:100A50007C018091F0038093BB00809117049091FA
:100A60001804A0911904B0911A04892B8A2B8B2B9E
:100A7000A1F00E94D7020091170410911804209150
:100A8000190430911A046C197D098E099F09061703
:100A900017072807390708F442C08091BC0083FD7E
:100AA000D8CF85EC8093BC000E94D7026B017C01FB
:100AB00080911504823009F44CC0809113048F3F5B
:100AC00009F469C080911304803209F466C08091F2
:100AD0001304803309F463C084E026C080911704B6
:100AE00090911804A0911904B0911A04892B8A2BB3
:100AF0008B2B09F483CF0E94D70200911704109129
:100B000018042091190430911A046C197D098E097A
:100B10009F09061717072807390708F06FCF80913C
:100B200016040E94C90485E010921C0410923E0431
:100B300010921B04DF91CF911F910F91FF90EF90C6
:100B4000DF90CF9008959D9191938F5F6DCF85EE4B
:100B5000A9CF8091170490911804A0911904B09125
:100B60001A04892B8A2B8B2B09F4A2CF0E94D7025F
:100B700000911704109118042091190430911A045F
:100B80006C197D098E099F09061717072807390771
:100B900008F08ECFC4CF80E0C7CF82E0C5CF83E01E
:100BA000C3CF0895E091930380919203E81730F446
:100BB000F0E0E65DFC4F808190E008958FEF9FEFBD
:100BC000089590919303809192032FEF3FEF981730
:100BD00048F4E92FF0E0E65DFC4F208130E09F5FB4
:100BE00090939303C9010895809192039091930388
:100BF000891B990B0895CF92DF92EF92FF920F938A
:100C00001F93CF93DF937C01CB018A0120911B04BA
:100C1000222389F0EB016B01C40ED51ECC15DD0536
:100C200069F06991D701ED91FC910190F081E02D7F
:100C3000C7011995F3CF642F0E948404C801DF9186
:100C4000CF911F910F91FF90EF90DF90CF9008957B
:100C5000CF93DF931F92CDB7DEB7698320911B043A
:100C60002223F9F020913E04203258F021E030E0B8
:100C7000FC013383228390E080E00F90DF91CF91DD
:100C8000089580911C04E82FF0E0E35EFB4F99810A
:100C900090838F5F80931C0480933E0481E090E0FA
:100CA000ECCF61E0CE0101960E948404F7CFCF9390
:100CB000DF9390E1899FE0011124C62BDC2FD860DF
:100CC0008091CB0391E090931B0480933D0410929C
:100CD0001C0410923E046D2F8CED94E00E942806B7
:100CE0006C2F6C608CED94E00E9428066D2F8CEDCB
:100CF00094E00E9428060E94EA0483EC90E00197A9
:100D0000F1F7DF91CF910895CF93DF93C82FD62FBE
:100D100082958F700E9457066D2F8C2F8F70DF91F8
:100D2000CF910C94570690E080E00895FC0121815A
:100D3000622780810C946D02CF93DF93EC0160E019
:100D40000E94960661E088810E949B0260E0CE01CD
:100D5000DF91CF910C9496060F931F93CF93DF935F
:100D6000EC01288130E0F901EF5CFC4F8491F9013E
:100D7000E551FD4F0491F901EB55FD4F14911123FD
:100D8000E9F081110E940602E12FF0E0EE0FFF1F53
:100D9000E650FE4FA591B491EC910E2331E020E096
:100DA00009F430E0832F922F21E08227817099810E
:100DB0008927DF91CF911F910F91089590E080E0F6
:100DC000F3CFCF92DF92EF92FF920F931F93FC012C
:100DD000168217828581861761F0658320873187A7
:100DE000428753871F910F91FF90EF90DF90CF9034
:100DF000089594818917B1F38823D1F060817181BE
:100E0000C084D184E284F38489019A010C191D09FC
:100E10002E093F09AB0170E060E0041715072607B3
:100E2000370700F38483868391E089278783DACFAD
:100E300062817381E5CF8F929F92AF92BF92CF92E2
:100E4000DF92EF92FF920F931F93CF93DF9300D027
:100E500000D000D01F92CDB7DEB70E94F0012091E4
:100E60003C02E22FF0E0EE0FFF1FEE5CFD4F91839E
:100E700080832F5F253008F0DFC020933C028091F3
:100E80003D02882309F4C5C080913202909133025B
:100E90009A83898380913402909135029C838B835D
:100EA00080913602909137029E838D838091380223
:100EB0009091390298878F8380913A0290913B02FA
:100EC0009A878987AE014D5F5F4F60E0FA012191FB
:100ED0003191AF01E62F8E2F0E2E000C990BDC0105
:100EE000AA0FBB1F01E010E00C0F1D1FA00FB11FC8
:100EF000ED90FC90DC0111962E153F0540F4AA0FF1
:100F0000BB1FA00FB11FED92FC92E15020F70E2EF7
:100F1000000CFF0B3196EE0FFF1F81E090E08C0F6D
:100F20009D1FE80FF91F318320836F5F643071F6D6
:100F30006D817E81CB0109978E3E934008F061C0A0
:100F400090E080E00E94FE126B017C0120E030E422
:100F50004CE156E40E9438144B015C01A701960154
:100F600060E070EC8FE794E40E941A129B01AC01E0
:100F7000C501B4010E948C1220E030E44CE156E43B
:100F80000E948C120E94BD1320E030EE46E755E42B
:100F90000E948C122FE03FEC4BE55BE30E941B129A
:100FA0009B01AC0160E070E080E89FE30E948C123E
:100FB00023E333E948E853E40E941A126B017C01F1
:100FC00020E030E048E452EC0E94871287FD3AC0EE
:100FD00020E030E046E153E4C701B6010E94B013BF
:100FE00018160CF45EC020E030E040E251E4C70186
:100FF000B6010E9438140E9405146115F0E87F07BD
:1010000019F510923E0280E090E89093440280939C
:1010100043022A960FB6F894DEBF0FBECDBFDF9114
:10102000CF911F910F91FF90EF90DF90CF90BF90E5
:10103000AF909F908F90089510923C0281E0809332
:101040003D021DCF6CE07EEF072E000C880B990B44
:1010500024E0660F771F881F991F2A95D1F72091EA
:101060003E02211121C060933F02709340028093A1
:1010700041029093420281E080933E0260913F02E0
:1010800070914002809141029091420220E130E053
:1010900040E050E00E941015309344022093430238
:1010A000B8CF6CED75E0D0CFC0903F02D090400239
:1010B000E0904102F09042026C197D098E099F096F
:1010C00025E030E040E050E00E941015C20ED31E33
:1010D000E41EF51EC0923F02D0924002E09241020F
:1010E000F0924202CBCFCF92DF92EF92FF920F931A
:1010F0001F93CF93DF93CDB7DEB761970FB6F89408
:10110000DEBF0FBECDBF9E012F5F3F4F7901F901BA
:1011100090E0DB012D91BD01211109C0F701E90F1C
:10112000F11D20E221939F5F9031E1F704C02193EC
:101130009F5F903171F7198AC82ED12CB1E18B9F36
:101140008001112404531C4FB801C7010E944B15A4
:10115000892BE9F0B701C8010E9454158091CB0397
:10116000882341F0F601ED59FD4F808160E08068F1
:101170000E9484068091CB03882349F0F701819176
:101180007F01882321F061E00E948406F7CF6196F9
:101190000FB6F894DEBF0FBECDBFDF91CF911F9188
:1011A0000F91FF90EF90DF90CF9008958F929F92D4
:1011B000AF92BF920F931F93CF93DF93CDB7DEB75C
:1011C000A1970FB6F894DEBF0FBECDBF19A2423073
:1011D00008F44AE08E010F5D1F4F842E912CB12C34
:1011E000A12CA50194010E94EE14E62FB901CA01B9
:1011F000EA3044F5E05DD801EE938D01232B242BDA
:10120000252B79F790E080E0109769F0FD010190BF
:101210000020E9F73197AF014A1B5B0BBD018FE35B
:1012200094E00E943003A1960FB6F894DEBF0FBE83
:10123000CDBFDF91CF911F910F91BF90AF909F9045
:101240008F900895E95CD7CF42E050E069E872E002
:101250008FE394E00C94300385ED8093BC00809183
:10126000170490911804A0911904B0911A040796DC
:10127000A11DB11D23E0B695A795979587952A9551
:10128000D1F72091BC0024FD03C0109215040895ED
:1012900040911704509118046091190470911A0438
:1012A000452B462B472B69F30097A105B10541F06B
:1012B0002AE22A95F1F700C00197A109B109E1CF0F
:1012C000809116040C94C9049F92AF92BF92CF9262
:1012D000DF92EF92FF920F931F93CF93DF93CDB7DF
:1012E000DEB7C454D1090FB6F894DEBF0FBECDBF30
:1012F000B82EA62E972E1A8E198E86E1FE017B96A9
:10130000DF01282F1D922A95E9F71A821982789712
:10131000DF011D928A95E9F71CAE1BAE88E0FA96B4
:10132000DF01282F1D922A95E9F71AAA19AA3A97E0
:10133000DF011D928A95E9F72091C9033091CA0314
:10134000CE01CB966C01211590E8390701F562E9D1
:1013500072E0C6010E9454158E01075E1F4F9E0168
:101360002F5F3F4F790137E03B1508F48DC0EB2D1F
:10137000F0E08827E154F64F8F4F0C942F15EB09BE
:10138000F609170A5F0A8E0A8E0A8E0AB40AC90184
:101390006AE070E00E94DA1497FF03C0919581958E
:1013A00091099F938F93C9016AE070E00E94DA145B
:1013B0007F936F9388E992E09F938F931F928AE0C7
:1013C0008F93DF92CF920E945B150FB6F894DEBF29
:1013D0000FBECDBFC1CF6FE972E0C8010E945415A6
:1013E00069EA72E0C7010E9454154EC065EB72E0D5
:1013F000C8010E9454158091C7032FE832E088236A
:1014000011F02CE832E08091C603811184C08FE88E
:1014100092E03F932F939F938F938DEB92E09F9356
:101420008F931F9288E18F93FF92EF9226C01F92B5
:101430001F921F9285E58F9388E992E09F938F9387
:101440001F928AE08F935E0191E3A90EB11CBF92B7
:10145000AF920E945B156BEC72E0C8010E945415BC
:10146000BF92AF92DF92CF9283ED92E09F938F93E2
:101470001F9288E18F93FF92EF920E945B150FB647
:10148000F894DEBF0FBECDBFB80180E00E947308A4
:10149000B70181E00E947308CC5BDF4F0FB6F89470
:1014A000DEBF0FBECDBFDF91CF911F910F91FF9097
:1014B000EF90DF90CF90BF90AF909F900895809174
:1014C000C50381111EC08FE41F928F938CED92E0B3
:1014D0009F938F931F9288E18F931F930F930E9486
:1014E0005B158091C6030FB6F894DEBF0FBECDBF6B
:1014F0009091C703882339F0992339F06CEE72E09C
:1015000071CF83E4E1CF911103C02FE832E07DCFAA
:101510002CE832E07CCF8CE892E07BCF9F92AF92B8
:10152000ECEFEB0DF0E0EE0FFF1FE35AFD4F818172
:101530008F9380818F938BEF92E09F938F931F9275
:1015400098E1B92EBF921F930F930E945B15DF9213
:10155000CF9284E093E09F938F931F92BF92FF926C
:10156000EF920E945B158BCF69E073E0C8010E9487
:10157000541560E173E036CF1F920F920FB60F92B1
:1015800011242F933F938F939F93AF93BF93809199
:10159000BD039091BE03A091BF03B091C0033091F1
:1015A000BC0323E0230F2D3758F50196A11DB11D73
:1015B0002093BC038093BD039093BE03A093BF030D
:1015C000B093C0038091C1039091C203A091C30363
:1015D000B091C4030196A11DB11D8093C1039093E6
:1015E000C203A093C303B093C403BF91AF919F9173
:1015F0008F913F912F910F900FBE0F901F901895D4
:1016000026E8230F0296A11DB11DD2CF1F920F9283
:101610000FB60F9211240BB60F922F933F934F9357
:101620005F936F937F938F939F93AF93BF93EF934A
:10163000FF938FE394E00E94A403FF91EF91BF9189
:10164000AF919F918F917F916F915F914F913F915A
:101650002F910F900BBE0F900FBE0F901F901895FB
:101660001F920F920FB60F9211240BB60F922F9369
:101670008F939F93EF93FF93E0914F04F091500469
:101680008081E0915504F091560482FD1DC0908147
:10169000809158048F5F8F7320915904821741F015
:1016A000E0915804F0E0E15CFB4F958F8093580483
:1016B000FF91EF919F918F912F910F900BBE0F9003
:1016C0000FBE0F901F9018958081F2CF1F920F923E
:1016D0000FB60F9211240BB60F922F933F934F9397
:1016E0005F936F937F938F939F93AF93BF93EF938A
:1016F000FF938091B900887F803609F44DC008F0CF
:1017000040C0883209F4A9C028F5803109F49DC091
:10171000C8F4882309F4FBC0883009F496C0FF910F
:10172000EF91BF91AF919F918F917F916F915F9159
:101730004F913F912F910F900BBE0F900FBE0F90C6
:101740001F901895883109F488C0803241F7809342
:10175000130414C0803409F49DC040F48033B9F3FD
:101760008833E9F68093130485ECB0C0803509F422
:1017700085C0883509F496C0883489F60E942C0902
:10178000CECF883909F48CC038F5883729F050F469
:10179000883611F0803719F683E080931504109293
:1017A0008D0357C0883809F47BC0803919F0803820
:1017B00009F0B5CF80918D03803208F071C0E091BF
:1017C0008D0381E08E0F80938D038091BB00F0E04C
:1017D000E359FC4F80833DC0803B39F0E0F4803A10
:1017E00009F479C0883A09F09ACF84E0809315040F
:1017F00010926C0310926B03E0919003F0919103AF
:10180000199580916B0381110FC081E080936B0368
:1018100010924B0309C0803C09F4A6CF883C09F420
:10182000A3CF883B09F07BCFE0916C0381E08E0F62
:1018300080936C03F0E0E55BFC4F80818093BB00FC
:1018400090916C0380916B0329C08091F003809389
:10185000BB0085EC8093BC0062CF90911204809114
:101860001104981758F5E091120481E08E0F8093CF
:101870001204F0E0EF50FC4F8081E9CFE0911204B8
:1018800081E08E0F809312048091BB00F0E0EF5056
:10189000FC4F808390911204809111049817C8F234
:1018A00085E8D8CFE091120481E08E0F8093120476
:1018B0008091BB00F0E0EF50FC4F808380911404D6
:1018C00081115CCF81E08093EF0384EA8093BC00B8
:1018D0001092150424CF85EC8093BC00109215045F
:1018E00080918D03803230F4E0918D03F0E0E35974
:1018F000FC4F108260918D0370E0E0918E03F091B7
:101900008F038DE693E0199510928D0308CF109206
:10191000130434CFEFE3F4E01382128288EE93E0F5
:10192000A0E0B0E084839583A683B78329E632E004
:101930003183208325EC30E03587248724EC30E0A8
:101940003787268720EC30E0318B208B21EC30E08C
:10195000338B228B22EC30E0358B248B26EC30E06D
:10196000378B268B118E128E138E148EECEDF4E0D5
:101970001382128284839583A683B7838BE792E0D8
:10198000918380830895789484B5826084BD84B502
:10199000816084BD85B5826085BD85B5816085BD6A
:1019A00080916E00816080936E0010928100809122
:1019B00081008260809381008091810081608093AA
:1019C0008100809180008160809380008091B100CF
:1019D00084608093B1008091B00081608093B000FA
:1019E000809191008260809391008091910081604C
:1019F000809391008091900081608093900080910D
:101A0000A10082608093A1008091A10081608093F9
:101A1000A1008091A00081608093A00080912101AD
:101A20008260809321018091210181608093210156
:101A30008091200181608093200180917A008460F0
:101A400080937A0080917A00826080937A008091FE
:101A50007A00816080937A0080917A008068809318
:101A60007A001092C100E0914F04F091500482E09E
:101A70008083E0914B04F0914C041082E0914D047E
:101A8000F0914E0480E1808310925704E09153045A
:101A9000F091540486E08083E0915104F091520467
:101AA000808180618083E0915104F09152048081B3
:101AB00088608083E0915104F091520480818068B5
:101AC0008083E0915104F091520480818F7D808366
:101AD0008FB7F894C090BD03D090BE03E090BF03D1
:101AE000F090C0038FBF85E592E00E949C0683E5DD
:101AF00092E00E949C0681E592E00E949C068FE4A1
:101B000092E00E949C068DE492E00E949C0662E0B6
:101B100086E10E949B0262E087E10E949B0262E0F4
:101B200088E10E949B0262E089E00E949B02109281
:101B3000050210920602C0920902D0920A02E092B7
:101B40000B02F0920C0210920702109208021092FF
:101B5000110210921202C0921502D0921602E09267
:101B60001702F092180210921302109214021092AF
:101B70001D0210921E02C0922102D0922202E09217
:101B80002302F092240210921F021092200210925F
:101B9000290210922A02C0922D02D0922E02E092C7
:101BA0002F02F092300210922B0210922C0210920F
:101BB000310260E086E30E949B020E94F001C2E3D2
:101BC000D2E00CE312E00E94F001899399930C1784
:101BD0001D07C9F7C1E0C0933D0210923C020E946C
:101BE0001B071092A503C092A603D092A703E09210
:101BF000A803F092A9031092AA031092AB03D70195
:101C0000C60188589341A109B1098093AC03909310
:101C1000AD03A093AE03B093AF0310929303109261
:101C200092030E94AB048EE293E090939103809321
:101C300090038FE293E090938F0380938E038CE068
:101C40008093B8001092CB03C0931B0487E280936B
:101C50003D0410921C0410923E040E94EA04882362
:101C600009F451C1C0931B048FE380933D0410928B
:101C70001C0410923E040E94EA04811103C08FE309
:101C80008093CB038091CB0381113FC11092EE036F
:101C900084E192E00E9418040E942409809143028A
:101CA00090914402509105024091110230911D0221
:101CB00020913102109231025093C5034093C60324
:101CC0003093C7032093C8039093CA038093C9033A
:101CD0008091A5038093A403C092A003D092A10396
:101CE000E092A203F092A303C092B003D092B1039A
:101CF000E092B203F092B303C092B403D092B50362
:101D0000E092B603F092B703C092B803D092B90341
:101D1000E092BA03F092BB033324339468EE462E6C
:101D200063E0562E612C712C8FB7F894C090BD03E0
:101D3000D090BE03E090BF03F090C0038FBF8091AE
:101D4000B8039091B903A091BA03B091BB034601C7
:101D50005701881A990AAA0ABB0AD501C4014497F7
:101D6000A105B105C8F1C092B803D092B903E092C1
:101D7000BA03F092BB038BE492E00E94AC06A70189
:101D80009601682F81E092E00E94E10689E492E0EA
:101D90000E94AC06A7019601682F8DE092E00E9498
:101DA000E10687E492E00E94AC06A7019601682F45
:101DB00089E192E00E94E10685E492E00E94AC068F
:101DC000A7019601682F85E292E00E94E1068091CA
:101DD0002B028111309231028091B4039091B503AE
:101DE000A091B603B091B703A7019601281B390B48
:101DF0004A0B5B0BDA01C90184369105A105B105D7
:101E000050F0C092B403D092B503E092B603F092C2
:101E1000B7030E941B078091B0039091B103A0917A
:101E2000B203B091B303B701A601481B590B6A0B6B
:101E30007B0BDB01CA014497A105B10508F48BC2F5
:101E4000C092B003D092B103E092B203F092B30318
:101E500020914302309144025091050240911102B9
:101E600090911D0280913102109231025093C5036E
:101E70004093C6039093C7038093C8033093CA036B
:101E80002093C903882379F081E09091A5039111F3
:101E900080E08093A503C092A603D092A703E092AE
:101EA000A803F092A903211550E8350709F071C085
:101EB0001092AA038091A6039091A703A091A80372
:101EC000B091A903B701A601481B590B6A0B7B0B04
:101ED000C091C6039091C703C11101C090E0E09189
:101EE000A503E150E73008F085C0F0E08827E4580A
:101EF000F04F8F4F0C942F15DB0FE90FEF0F1B10D6
:101F0000261032103F1087E2BBCE62E370E080E023
:101F100090E00E94FC0260E083E00E94570665E0CA
:101F200070E080E090E00E94FC0260E083E00E94AC
:101F30005706C3E5D2E0CE010197F1F760E083E0F8
:101F40000E945706CE010197F1F760E082E00E94FF
:101F500057062197F1F760E088E20E94840660E06E
:101F600088E00E94840660E081E00E94840662E0CE
:101F700070E080E090E00E94FC0260E086E00E9459
:101F8000840660E08CE00E94840681E08093EE038A
:101F900085CE8091AA03882331F02C3162E0360788
:101FA0000CF486CF87CF263272E037070CF482CF4D
:101FB0003092AA037FCF9923E9F082E08093A503B2
:101FC000C092A603D092A703E092A803F092A903BF
:101FD00011C08091AA03882369F083E0EFCF80913C
:101FE000AA03882351F38091C503882319F084E064
:101FF0009111E4CF1091A503C325D091C703D32538
:10200000111102C0C0E0D0E09091AB03123008F48F
:1020100002C28091C703882309F4FDC1211540E85D
:10202000340709F4F8C181E0992371F12235334076
:1020300074F180E02CC08091C503882371F2483E82
:102040005D4F61057105B0F285E0B8CF8091C503A1
:10205000882319F286E0483853416105710508F07C
:10206000ADCFC8CF8091C503882309F4B6CF403ED9
:102070005E426105710508F4BDCF87E09FCF809176
:10208000C5038111B7CFA9CF2433334094F6891704
:10209000B1F04091AC035091AD036091AE037091EB
:1020A000AF0346015701841A950AA60AB70AB5017B
:1020B000A401483853416105710508F0B0C1009191
:1020C000AB03AA24A394143009F0A12CBB24B3942D
:1020D000163009F0B12C6A2D85E592E00E94960633
:1020E0006B2D83E592E00E949606602F81E592E0D9
:1020F0000E9496066C2F8FE492E00E9496066D2F48
:102100008DE492E00E9496069090A5039091C503FD
:1021100080919A03981312C19091C60380919B03FA
:1021200098130CC19091C70380919C0398278091CC
:1021300095038A1105C1809196038B1101C180918D
:1021400097038013FDC0809198038C13F9C0809190
:1021500099038D2720910002211109C02091940339
:10216000921205C0911103C0882309F48DC010920A
:1021700000029092940386E0E5ECF3E0AAE9B3E074
:1021800001900D928A95E1F7A0929503B092960383
:1021900000939703C0939803D09399034AE0C70133
:1021A000B6010E94D60889E692E00E941804692DC3
:1021B00070E090E080E04AE00E94D60882E692E07B
:1021C0000E9418048090C9039090CA03092C000C47
:1021D000AA08BB084AE0C501B401B7FE0BC08DE2F6
:1021E0000E94130466277727CB01681979098A09A9
:1021F0009B094AE00E94D6088BE592E00E941804F1
:102200008091C503882309F49DC083E40E941304D0
:1022100084E592E00E9418048091C603882309F4A3
:1022200093C086E40E9413048BE492E00E94180499
:102230008091C703882309F489C086E40E941304AF
:1022400085E492E00E94180487E5143009F08DE2DD
:102250000E94130482E5163009F08DE20E941304F7
:1022600088E4011101C08DE20E94130484E5C111CC
:1022700001C08DE20E94130482E4D11101C08DE2FD
:102280000E9413040E942409C091A5038091A40315
:10229000C81709F460C0C093A403ECEFEC0FE3305F
:1022A00008F056C0F0E0EE0FFF1FE95AFD4F8081A5
:1022B0009181B0E0A0E00097A105B10509F448C004
:1022C0000091A6031091A7032091A8033091A903C0
:1022D000B701A601401B510B620B730B8A019B01D6
:1022E000081719072A073B0798F547EE842E43E0A5
:1022F000942EA12CB12C801A910AA20AB30A95013E
:102300008401BC01CD01600F711F821F931FA301C7
:1023100092010E94EE14B9018091EE03882319F016
:102320008C2F0E946409C092A003D092A103E09276
:10233000A203F092A3030E945304F6CC91E0F7CEDF
:1023400081E008CF8FE462CF8CE46CCF8CE476CF51
:1023500070E060E0E1CF8091A0039091A103A09193
:10236000A203B091A303A7019601281B390B4A0BC6
:102370005B0BDA01C9018A3F9105A105B105D8F2CD
:10238000C092A003D092A103E092A203F092A30313
:10239000C091A503ECEFEC0FE330D0F5F0E0EE0FC9
:1023A000FF1FE95AFD4F80819181B0E0A0E00097C6
:1023B000A105B10569F10091A6031091A703209131
:1023C000A8033091A903C01AD10AE20AF30AC81679
:1023D000D906EA06FB06E0F407EE13E020E030E061
:1023E0000C191D092E093F09BC01CD01600F711F99
:1023F000821F931FA30192010E94EE14B9018091E4
:10240000EE03882309F497CF8C2F0E94640993CFA1
:1024100070E060E0F4CF992309F451CE80E080931E
:10242000AB03C092AC03D092AD03E092AE03F09246
:10243000AF0345CE5058BB27AA270E9432120C94F6
:1024400076130E94681338F00E946F1320F039F45D
:102450009F3F19F426F40C9465130EF4E095E7FB06
:102460000C945F13E92F0E94871358F3BA17620781
:1024700073078407950720F079F4A6F50C94A91347
:102480000EF4E0950B2EBA2FA02D0B01B90190018F
:102490000C01CA01A0011124FF27591B99F0593FD3
:1024A00050F4503E68F11A16F040A22F232F342F1B
:1024B0004427585FF3CF469537952795A795F04069
:1024C0005395C9F77EF41F16BA0B620B730B840B7E
:1024D000BAF09150A1F0FF0FBB1F661F771F881F36
:1024E000C2F70EC0BA0F621F731F841F48F487958E
:1024F00077956795B795F7959E3F08F0B0CF939580
:10250000880F08F09927EE0F9795879508950E94F8
:102510003B1308F481E008950E94A0120C947613F6
:102520000E946F1358F00E94681340F029F45F3F37
:1025300029F00C945F1351110C94AA130C94651399
:102540000E94871368F39923B1F3552391F3951BE8
:10255000550BBB27AA2762177307840738F09F5FC4
:102560005F4F220F331F441FAA1FA9F335D00E2E31
:102570003AF0E0E832D091505040E695001CCAF79E
:102580002BD0FE2F29D0660F771F881FBB1F261761
:1025900037074807AB07B0E809F0BB0B802DBF0138
:1025A000FF2793585F4F3AF09E3F510578F00C9407
:1025B0005F130C94AA135F3FE4F3983ED4F386951F
:1025C00077956795B795F7959F5FC9F7880F911D28
:1025D0009695879597F90895E1E0660F771F881F14
:1025E000BB1F621773078407BA0720F0621B730BC7
:1025F000840BBA0BEE1F88F7E0950895E89409C0A4
:1026000097FB3EF490958095709561957F4F8F4F25
:102610009F4F9923A9F0F92F96E9BB279395F6953B
:10262000879577956795B795F111F8CFFAF4BB0FB9
:1026300011F460FF1BC06F5F7F4F8F4F9F4F16C01D
:10264000882311F096E911C0772321F09EE8872FA7
:10265000762F05C0662371F096E8862F70E060E063
:102660002AF09A95660F771F881FDAF7880F9695DC
:10267000879597F90895990F0008550FAA0BE0E880
:10268000FEEF16161706E807F907C0F01216130634
:10269000E407F50798F0621B730B840B950B39F474
:1026A0000A2661F0232B242B252B21F408950A26DA
:1026B00009F4A140A6958FEF811D811D089597F91A
:1026C0009F6780E870E060E008959FEF80EC0895D8
:1026D00000240A9416161706180609060895002401
:1026E0000A9412161306140605060895092E03947B
:1026F000000C11F4882352F0BB0F40F4BF2B11F4EF
:1027000060FF04C06F5F7F4F8F4F9F4F089557FD4D
:102710009058440F551F59F05F3F71F04795880F4F
:1027200097FB991F61F09F3F79F0879508951216E6
:1027300013061406551FF2CF4695F1DF08C0161692
:1027400017061806991FF1CF869571056105089443
:102750000895E894BB2766277727CB0197F908955A
:102760000E943B1308F48FEF089516F00C94A51403
:102770000C94651368940C945F130E948F13A8F354
:102780009923C1F3AEF3DF93CF931F930F93FF927F
:10279000C92FDD2788232AF02197660F771F881F0E
:1027A000DAF720E030E040E85FEB9FE3883920F083
:1027B000803E38F021968F770E941B12E4EEF0E005
:1027C00004C00E941B12E1E1F1E00E94B3148B01EE
:1027D000BE01EC01FB2E6F5771097595771F880BB1
:1027E000990B0E94001328E132E741E35FE30E9466
:1027F0004B14AF2D9801AE01FF900F911F91CF9117
:10280000DF910E9432120C9476130E948F1358F1BC
:102810009E5760F19851A0F0E9F0983020F5092E0C
:102820009927660F771F881F991F0A94D1F712C046
:10283000062E672F782F8827985F11F4000C07C0A9
:10284000993FB4F38695779567959395D9F7611D70
:10285000711D811D3EF490958095709561957F4F17
:102860008F4F9F4F089568940C94AA130C94A9134A
:102870000E944B140C9476130E94681338F00E9447
:102880006F1320F0952311F00C945F130C946513D3
:1028900011240C94AA130E94871370F3959FC1F31F
:1028A000950F50E0551F629FF001729FBB27F00DFE
:1028B000B11D639FAA27F00DB11DAA1F649F662753
:1028C000B00DA11D661F829F2227B00DA11D621FA2
:1028D000739FB00DA11D621F839FA00D611D221F5C
:1028E000749F3327A00D611D231F849F600D211D40
:1028F000822F762F6A2F11249F5750409AF0F1F0C3
:1029000088234AF0EE0FFF1FBB1F661F771F881F2B
:1029100091505040A9F79E3F510580F00C945F13F1
:102920000C94AA135F3FE4F3983ED4F38695779511
:102930006795B795F795E7959F5FC1F7FE2B880FD1
:10294000911D9695879597F908959F3F31F0915085
:1029500020F4879577956795B795880F911D969583
:10296000879597F90895DF93CF931F930F93FF9265
:10297000EF92DF927B018C01689406C0DA2EEF01A2
:102980000E944B14FE01E894A59125913591459143
:102990005591A6F3EF010E943212FE019701A801A2
:1029A000DA9469F7DF90EF90FF900F911F91CF912C
:1029B000DF91089597FB072E16F4009407D077FD5A
:1029C00009D00E94371507FC05D03EF490958195FB
:1029D0009F4F0895709561957F4F0895A1E21A2E3B
:1029E000AA1BBB1BFD010DC0AA1FBB1FEE1FFF1FB3
:1029F000A217B307E407F50720F0A21BB30BE40B03
:102A0000F50B661F771F881F991F1A9469F7609549
:102A10007095809590959B01AC01BD01CF01089503
:102A2000052E97FB1EF400940E94271557FD07D032
:102A30000E94EE1407FC03D04EF40C942715509519
:102A40004095309521953F4F4F4F5F4F089590959A
:102A50008095709561957F4F8F4F9F4F0895EE0F32
:102A6000FF1F881F8BBF0790F691E02D1994AA1BBA
:102A7000BB1B51E107C0AA1FBB1FA617B70710F069
:102A8000A61BB70B881F991F5A95A9F7809590959B
:102A9000BC01CD010895FB01DC018D9101908019ED
:102AA0000110D9F3990B0895FB01DC0101900D92FF
:102AB0000020E1F708950F931F93CF93DF93CDB7D5
:102AC000DEB72E970FB6F894DEBF0FBECDBF0E89CE
:102AD0001F89888D998D26E02C831A83098397FF9F
:102AE00002C080E090E801979E838D83AE01445E32
:102AF0005F4F6A8D7B8DCE0101960E9498154D81A6
:102B00005E8157FD0AC02F813885421753070CF4A8
:102B10009A01020F131FF80110822E960FB6F89437
:102B2000DEBF0FBECDBFDF91CF911F910F910895F2
:102B30002F923F924F925F926F927F928F929F92CD
:102B4000AF92BF92CF92DF92EF92FF920F931F93BB
:102B5000CF93DF9300D000D000D01F921F92CDB74B
:102B6000DEB77C013B018A01FC011782168283815A
:102B700081FFDDC1CE0101965C01F7019381F30174
:102B800093FD859193FF81913F01882309F453C1FF
:102B9000853239F493FD859193FF81913F01853210
:102BA00029F4B70190E00E94B017E7CF912C212CB7
:102BB000312CFFE1F31538F08B3211F190F48032B3
:102BC00009F1833229F137FC3CC020ED280F2A306F
:102BD00050F536FE20C08AE0989E200D1124922EDA
:102BE00006C08D3291F0803371F7689430F8F301AC
:102BF00093FD859193FF81913F018111DACF21C02F
:102C0000689431F8689432F8F2CF689433F8EFCFD3
:102C1000689434F8ECCFEAE02E9E200D1124222E89
:102C2000689435F8E4CF8E3229F436FC04C16894F8
:102C300036F8DDCF8C3619F4689437F8D8CF88365B
:102C4000B1F2982F9F7D95549330E0F08336A1F137
:102C50008337C1F1833509F063C02801F2E04F0EDC
:102C6000511CF801C080D180692D70E036FC02C093
:102C70006FEF7FEFC6010E949A174C01689437F8F6
:102C800082010AC00C5F1F4FFFE3F98388248394FD
:102C9000912C6501E89437F833FE2DC0522C811435
:102CA000910471F5552009F468CFB70180E290E0F6
:102CB0000E94B0175A94F6CFF801808189830E5F85
:102CC0001F4FE4CF2801F2E04F0E511CF801C080E5
:102CD000D180692D70E036FC02C06FEF7FEFC60136
:102CE0000E94A5174C018201D5CFB70180E290E088
:102CF0000E94B0172A942814190409F0B0F7CECF17
:102D0000F60137FC859137FE81916F01B70190E0A4
:102D10000E94B01751105A94F1E08F1A9108BFCF5A
:102D2000843619F0893609F077C0F80137FE6BC098
:102D300060817181828193810C5F1F4FF32DFF763B
:102D40003F2E97FF09C090958095709561957F4FB4
:102D50008F4F9F4F689437F82AE030E0A5010E941A
:102D6000E017C82ECA188C2C432C36FE0CC0E894F1
:102D700040F8C91440F434FE05C032FC03C0F32D02
:102D8000FE7E4F2E892C44FEAAC0FE01EC0DF11DE3
:102D90008081803309F09CC0242D297E422E842D11
:102DA0008870582E43FCAAC040FEA4C09C2C8214FC
:102DB00018F42C0C922C981844FEA6C0B70180E39E
:102DC00090E00E94B01742FE09C088E790E041FE03
:102DD00002C088E590E0B7010E94B017C91408F45A
:102DE0009FC0CA94D12C9FEFC91AD90ACA0CDB1C08
:102DF000F60182916F01B70190E00E94B017AC1408
:102E0000BD04B1F74FCF60817181072E000C880B94
:102E1000990B0E5F1F4F92CFD32CE894D4F82AE081
:102E200030E08537E1F1232D297FD22E8F36A9F1AD
:102E3000F0F4883551F1F701868197812B960FB612
:102E4000F894DEBF0FBECDBFDF91CF911F910F91E0
:102E5000FF90EF90DF90CF90BF90AF909F908F90BA
:102E60007F906F905F904F903F902F9008958037A4
:102E700049F0883701F7D4FE02C06894D2F820E107
:102E800030E00DC06894D4F8F6CF34FE03C0822F32
:102E90008660D82E20E132E002C028E030E0F80160
:102EA000D7FE0FC060817181828193810C5F1F4FBB
:102EB000A5010E94E017C82ECA183D2CE89437F8E7
:102EC00052CF6081718190E080E00E5F1F4FF0CFA4
:102ED00042FC02C0839463CF8394839460CF842D9B
:102EE000867809F45CCFF6CFB70180E290E00E94CB
:102EF000B01783948214C0F3512C5ECF522C581813
:102F0000821408F459CFF8CF842D867809F466CF5F
:102F10008BE241FE80E247FC8DE2B70190E05CCF9E
:102F2000B70180E390E00E94B0179A9457CF8FEFDB
:102F30009FEF84CFFC010590615070400110D8F7DD
:102F4000809590958E0F9F1F0895FC0161507040F1
:102F500001900110D8F7809590958E0F9F1F0895CE
:102F60000F931F93CF93DF93182F092FEB018B81C2
:102F700081FD09C01FEF0FEF812F902FDF91CF91BF
:102F80001F910F91089582FF14C02E813F818C8183
:102F90009D81281739073CF4E881F981CF0101961A
:102FA0009983888310838E819F8101969F838E836E
:102FB000E3CFE885F985812F1995892BA1F3DACF25
:102FC000FA01AA27283051F1203181F1E8946F935A
:102FD0006E7F6E5F7F4F8F4F9F4FAF4FB1E03ED000
:102FE000B4E03CD0670F781F891F9A1FA11D680F9E
:102FF000791F8A1F911DA11D6A0F711D811D911DD1
:10300000A11D20D009F468943F912AE0269F112445
:103010003019305D3193DEF6CF010895462F4770A9
:10302000405D4193B3E00FD0C9F7F6CF462F4F7004
:10303000405D4A3318F0495D31FD4052419302D062
:10304000A9F7EACFB4E0A695979587957795679508
:10305000BA95C9F700976105710508959B01AC0108
:103060000A2E06945795479537952795BA95C9F72F
:10307000620F731F841F951FA01D0895F894FFCF42
:1030800001640032000000000000000000F401B8FC
:103090000B0000000000000000F401B80B0000006D
:1030A00000000000001E001E0000000000000000E4
:1030B0000000000000000000000000000000000010
:1030C0000000000080090018001700160006010526
:1030D00001040103010201E8FD8813E02E1A031F19
:1030E000032403004000000000C60330035D0333E7
:1030F000048E036C038003000000002806FB059388
:1031000006D105F405E105D2050D0A002B2B002D93
:103110002D002D2D2E2D430025642E2564430050B7
:103120004F574552204F464600505245535320506A
:103130004F5745520046494C4C494E470054414E6A
:103140004B257320424F494C257300484541544953
:103150004E4700543A2573202F25730052454144B1
:1031600059202020444F4F523A256300434C4F537F
:10317000452054484520444F4F5200252D36732595
:1031800033757300543A25730046494E495348003D
:103190004F50454E20444F4F52005741534800571F
:0A31A0004149540052494E534500C6
:020000040003F7
:10E000000D9489F10D94B2F10D94B2F10D94B2F129
:10E010000D94B2F10D94B2F10D94B2F10D94B2F1F0
:10E020000D94B2F10D94B2F10D94B2F10D94B2F1E0
:10E030000D94B2F10D94B2F10D94B2F10D94B2F1D0
:10E040000D94B2F10D94B2F10D94B2F10D94B2F1C0
:10E050000D94B2F10D94B2F10D94B2F10D94B2F1B0
:10E060000D94B2F10D94B2F10D94B2F10D94B2F1A0
:10E070000D94B2F10D94B2F10D94B2F10D94B2F190
:10E080000D94B2F10D94B2F10D94B2F10D94B2F180
:10E090000D94B2F10D94B2F10D94B2F10D94B2F170
:10E0A0000D94B2F10D94B2F10D94B2F10D94B2F160
:10E0B0000D94B2F10D94B2F10D94B2F10D94B2F150
:10E0C0000D94B2F10D94B2F10D94B2F10D94B2F140
:10E0D0000D94B2F10D94B2F10D94B2F10D94B2F130
:10E0E0000D94B2F141546D656761323536300041AF
:10E0F000726475696E6F206578706C6F72657220DE
:10E1000073746B3530305632206279204D4C530099
:10E11000426F6F746C6F616465723E004875683F52
:10E1200000436F6D70696C6564206F6E203D200048
:10E130004350552054797065202020203D20005FF9
:10E140005F4156525F415243485F5F3D2000415658
:10E1500052204C696243205665723D20004743437C
:10E160002056657273696F6E203D20004350552024
:10E1700049442020202020203D20004C6F7720663D
:10E18000757365202020203D20004869676820665F
:10E190007573652020203D200045787420667573D6
:10E1A00065202020203D20004C6F636B2066757336
:10E1B000652020203D20004D617220203720323024
:10E1C000313300312E362E3800342E332E350056A2
:10E1D00023202020414444522020206F7020636F70
:10E1E00064652020202020696E73747275637469E1
:10E1F0006F6E2061646472202020496E74657272B3
:10E20000757074006E6F20766563746F7200726A49
:10E210006D702020006A6D70200057686174207056
:10E220006F72743A00506F7274206E6F7420737541
:10E2300070706F72746564004D7573742062652030
:10E2400061206C6574746572002000577269747483
:10E25000696E672045450052656164696E672045B7
:10E26000450045452065727220636E743D00504F35
:10E27000525400303D5A65726F2061646472003FF1
:10E280003D43505520737461747300403D454550C3
:10E29000524F4D207465737400423D426C696E6B41
:10E2A000204C454400453D44756D70204545505215
:10E2B0004F4D00463D44756D7020464C415348001B
:10E2C000483D48656C70004C3D4C69737420492F83
:10E2D0004F20506F72747300513D51756974005234
:10E2E0003D44756D702052414D00563D73686F7707
:10E2F00020696E7465727275707420566563746FF0
:10E30000727300593D506F727420626C696E6B00BD
:10E310002A0011241FBECFEFD1E2DEBFCDBF01E046
:10E320000CBF12E0A0E0B2E0EEE1FDEF03E00BBFB6
:10E3300002C007900D92A030B107D9F712E0A0E01B
:10E34000B2E001C01D92AE30B107E1F70F9460F367
:10E350000D948DFE01E20EBF0FEF0DBF11241FBE05
:10E360000D9460F30D9400F020E030E040ED57E0B4
:10E3700005C0FA013197F1F72F5F3F4F2817390792
:10E38000C0F308959C01260F311DC901A0E0B0E043
:10E390002F5F3F4FABBFFC018791882361F08093D3
:10E3A000C6008091C00086FFFCCF8091C0008064D1
:10E3B0008093C000EACF08958DE08093C6008091DD
:10E3C000C00086FFFCCF8091C00080648093C000B5
:10E3D0008AE08093C6008091C00086FFFCCF8091C8
:10E3E000C00080648093C00008950F94C2F10F9420
:10E3F000DCF10895FC019081992359F09093C600B7
:10E400008091C00086FFFCCF8091C0008064809323
:10E41000C0003196992379F70895282F982F929567
:10E420009F70892F805D8A3308F0895F8093C600D2
:10E430008091C00086FFFCCF8091C00080648093F3
:10E44000C000822F8F70982F905D9A3308F0995FEB
:10E450009093C6008091C00086FFFCCF8091C000E1
:10E4600080648093C00008959C01FB01853691056E
:10E470001CF46330710594F0C90164E670E00F94F8
:10E480002EFE605D7F4F6093C6008091C00086FFC6
:10E49000FCCF8091C00080648093C0002B30310598
:10E4A00014F43297B4F0C90164E670E00F942EFEC4
:10E4B0006AE070E00F942EFE605D7F4F6093C600AF
:10E4C0008091C00086FFFCCF8091C0008064809363
:10E4D000C000C9016AE070E00F942EFEC0968093E0
:10E4E000C6008091C00086FFFCCF8091C000806490
:10E4F0008093C00008951F93182F8EE692EE60E07F
:10E500000F94C2F11093C6008091C00086FFFCCF2B
:10E510008091C00080648093C0000F94DCF11F9153
:10E5200008952F923F924F925F926F927F928F92B7
:10E530009F92AF92BF92CF92DF92EF92FF920F9392
:10E540001F93DF93CF93CDB7DEB762970FB6F894E2
:10E55000DEBF0FBECDBF382E622ECA01DB015C01CB
:10E560006D01772420E2222E2E010894411C511CBB
:10E570008BC081E0A81680E0B80681E0C80680E084
:10E58000D80628F0C601AA27BB270F940DF2BB2797
:10E59000AD2D9C2D8B2D0F940DF28A2D0F940DF225
:10E5A0002092C6008091C00086FFFCCF8091C00001
:10E5B00080648093C0009DE29093C6008091C0006B
:10E5C00086FFFCCF8091C00080648093C0002092C1
:10E5D000C6008091C00086FFFCCF8091C00080649F
:10E5E0008093C00019828601750188249924A1E0D6
:10E5F0003A1651F03A1620F0B2E03B1661F409C029
:10E600000BBFF701779007C0C7010F9477FE782EF4
:10E6100002C0F7017080872D0F940DF22092C60082
:10E620008091C00086FFFCCF8091C0008064809301
:10E63000C000872D8052F401EF70F0708F3520F408
:10E64000E40DF51D708204C0E40DF51D8EE280839B
:10E650000894E11CF11C011D111D0894811C911CE2
:10E6600090E18916910409F0C2CF80E190E0A0E02A
:10E67000B0E0A80EB91ECA1EDB1E198AC2010F9493
:10E68000FAF10F94DCF16A94662009F072CF629679
:10E690000FB6F894DEBF0FBECDBFCF91DF911F91B3
:10E6A0000F91FF90EF90DF90CF90BF90AF909F9031
:10E6B0008F907F906F905F904F903F902F90089534
:10E6C0002F923F924F925F926F927F928F929F9282
:10E6D000AF92BF92CF92DF92EF92FF920F931F9370
:10E6E000DF93CF93CDB7DEB7CD53D1400FB6F894BB
:10E6F000DEBF0FBECDBF01E20EBF0FEF0DBF94B75F
:10E70000F894A89514BE80916000886180936000A1
:10E7100010926000789493FF05C0E0910002F091A0
:10E7200001021995279A2F9A8091C00082608093E8
:10E73000C00080E18093C40088E18093C1000000A4
:10E74000EE24FF24870144E0A42EB12CCC24DD2448
:10E7500024C0C5010197F1F70894E11CF11C011DCB
:10E76000111D21E2E2162EE4F20620E0020720E06D
:10E77000120718F031E0C32ED12CC801B70127ECE5
:10E780003BE140E050E00F9441FE611571058105C9
:10E79000910519F485B1805885B98091C00087FD35
:10E7A00003C0C114D104A9F2A6014F5F5F4FC25E3E
:10E7B000DE4F59834883CE51D140C25EDE4F8881FF
:10E7C0009981CE51D140019711F00D9410FEC05D9A
:10E7D000DE4F19821882C053D14060E0C15DDE4F28
:10E7E0001882CF52D14088249924C35DDE4F19820C
:10E7F0001882CD52D140C05EDE4F188219821A8233
:10E800001B82C052D140CE5CDE4F188219821A8220
:10E810001B82C253D140EE24FF2487010BBFF701B6
:10E8200007911691C45CDE4F19830883CC53D14005
:10E830000D940BFEC25EDE4F28813981CE51D1404E
:10E840002130310509F52091C600C25EDE4F1982E4
:10E850001882CE51D14022C02F5F3F4F4F4F5F4FA4
:10E86000213082E138078AE7480780E0580780F0C6
:10E87000C45CDE4FE881F981CC53D140EF5FFF4F9C
:10E8800019F0EE27FF27099420E030E040E050E047
:10E890008091C00087FFE0CF2091C600C35DDE4FAE
:10E8A00048815981CD52D1404F5F5F4FC35DDE4FEC
:10E8B00059834883CD52D140213209F063C64A3092
:10E8C000510508F05FC60894811C911C53E0851621
:10E8D000910409F059C600E010E018C081E280936D
:10E8E000C6008091C00086FFFCCF8091C00080648C
:10E8F0008093C0002F5F3F4F2931310579F70F9486
:10E90000DCF10F5F1F4F0530110519F020E030E0FA
:10E91000E5CF10920A0210920B0210920C02109294
:10E920000D02109206021092070210920802109235
:10E930000902109202021092030210920402109235
:10E9400005028FEE90EE60E00F94F5F180E191EE1C
:10E9500060E00F94C2F18091C00087FFFCCF9091DE
:10E96000C600903608F09F759032B8F09093C600BC
:10E970008091C00086FFFCCF8091C00080648093AE
:10E98000C000A0E2A093C6008091C00086FFFCCF2B
:10E990008091C00080648093C000983409F4D7C18E
:10E9A0009934B8F4923409F459C1933458F490333B
:10E9B00019F1903308F4E3C59F33A1F1903409F0C5
:10E9C000DEC5BDC0953409F470C1963409F0D7C5D1
:10E9D00098C1923509F42BC2933538F49C3409F46C
:10E9E000F5C1913509F0CBC518C2963509F445C279
:10E9F000993509F0C4C567C483E792EE62E00F94CD
:10EA0000F5F110920602109207021092080210927D
:10EA1000090210920A0210920B0210920C0210923C
:10EA20000D0213C18FE792EE62E00F94F5F18FEEC5
:10EA300090EE60E00F94F5F181E291EE60E00F94CA
:10EA4000C2F187EB91EE60E00F94F5F180E391EE77
:10EA500060E00F94C2F184EE90EE60E00F94F5F167
:10EA60008FE391EE60E00F94C2F186E090E061E008
:10EA700070E00F9434F20F94DCF18DE591EE60E0DC
:10EA80000F94C2F189EC91EE60E00F94F5F18EE401
:10EA900091EE60E00F94C2F183EC91EE60E00F9490
:10EAA000F5F18CE691EE60E00F94C2F18EE10F94E7
:10EAB0000DF288E90F940DF281E00F940DF20F949E
:10EAC000DCF18BE791EE60E00F94C2F119E0E0E039
:10EAD000F0E010935700E4918E2F0F940DF20F94F5
:10EAE000DCF18AE891EE60E00F94C2F1E3E0F0E03F
:10EAF00010935700E4918E2F0F940DF20F94DCF1D8
:10EB000089E991EE60E00F94C2F1E2E0F0E0109349
:10EB10005700E4918E2F0F940DF20F94DCF188EAE8
:10EB200091EE60E00F94C2F1E1E0F0E01093570045
:10EB30001491812F0F940DF20F94DCF107CF8BE825
:10EB400092EE62E00F94F5F18BE492EE60E00F94A8
:10EB5000F5F10F94DCF100E010E019C0C8016F2D51
:10EB60000F947FFEFF2031F489E492EE60E00F9471
:10EB7000C2F10BC0F092C6008091C00086FFFCCFAE
:10EB80008091C00080648093C0000F5F1F4FC80158
:10EB900081519F41A0E0B0E0ABBFFC01F790BAE229
:10EBA000FB1621F0E2E000301E07C1F60F94DCF105
:10EBB0000F94DCF187E592EE60E00F94F5F10F948D
:10EBC000DCF1CC24DD2400E010E01EC0C8010F946D
:10EBD00077FEF82E882331F489E492EE60E00F94FA
:10EBE000C2F10BC08093C6008091C00086FFFCCFAD
:10EBF0008091C00080648093C000FE1419F00894D6
:10EC0000C11CD11C0F5F1F4FC80181519F41A0E063
:10EC1000B0E0ABBFFC01E790FAE2EF1621F022E092
:10EC20000030120799F60F94DCF10F94DCF182E6C4
:10EC300092EE60E00F94C2F1C60161E070E00F94C3
:10EC400034F20F94DCF10F94DCF110920202109276
:10EC50000302109204021092050278CE89E992EE26
:10EC600062E00F94F5F1279A2F9A16C02F9880E052
:10EC700090E0E0EDF7E03197F1F7019684369105E9
:10EC8000C1F72F9A80E090E0E0EDF7E03197F1F7DF
:10EC9000019684369105C1F78091C00087FFE6CFC9
:10ECA0008091C00087FFFCCF64C485EA92EE62E0E9
:10ECB0000F94F5F140910202509103026091040219
:10ECC0007091050281E020E10F9491F2809102029F
:10ECD00090910302A0910402B091050280509F4FD1
:10ECE000AF4FBF4F8093020290930302A0930402A0
:10ECF000B093050280509041A040B04008F426CE69
:10ED0000A4CF83EB92EE62E00F94F5F140910602FE
:10ED100050910702609108027091090280E020E1A1
:10ED20000F9491F28091060290910702A09108023F
:10ED3000B091090280509F4FAF4FBF4F80930602A2
:10ED400090930702A0930802B0930902FFCD80ECD4
:10ED500092EE62E00F94F5F183E792EE60E00F949B
:10ED6000F5F18FE792EE60E00F94F5F18BE892EE0B
:10ED700060E00F94F5F189E992EE60E00F94F5F10F
:10ED800085EA92EE60E00F94F5F183EB92EE60E09D
:10ED90000F94F5F180EC92EE60E00F94F5F187ECC2
:10EDA00092EE60E00F94F5F188ED92EE60E00F9442
:10EDB000F5F18FED92EE60E00F94F5F18AEE92EEB0
:10EDC00060E00F94F5F183E093EEBDCD87EC92EE19
:10EDD00062E00F94F5F181E40F947BF282E40F94EA
:10EDE0007BF283E40F947BF284E40F947BF285E45E
:10EDF0000F947BF286E40F947BF287E40F947BF20E
:10EE000088E40F947BF28AE40F947BF28BE40F94F6
:10EE10007BF28CE40F947BF299CD88ED92EE62E068
:10EE20000F94F5F1772473948824992409C48FED05
:10EE300092EE62E00F94F5F140910A0250910B02BC
:10EE400060910C0270910D0282E020E10F9491F22A
:10EE500080910A0290910B02A0910C02B0910D02D8
:10EE600080509F4FAF4FBF4F80930A0290930B0289
:10EE7000A0930C02B0930D0269CD8AEE92EE62E08F
:10EE80000F94F5F184EE90EE60E00F94F5F18FECC5
:10EE900091EE60E00F94F5F1662477244301CC5D98
:10EEA000DE4F19821882C452D140D401C301B695F5
:10EEB000A79597958795CA5DDE4F88839983AA8326
:10EEC000BB83C652D140CC5DDE4FA881B981C4520C
:10EED000D1401196CC5DDE4FB983A883C452D14096
:10EEE000CD0162E070E00F9434F2B0E2B093C6005E
:10EEF0008091C00086FFFCCF8091C0008064809329
:10EF0000C000EDE2E093C6008091C00086FFFCCF18
:10EF10008091C00080648093C000F0E2F093C6004E
:10EF20008091C00086FFFCCF8091C00080648093F8
:10EF3000C000CA5DDE4FE880F9800A811B81C6529D
:10EF4000D140BB27A12F902F8F2D0F940DF2CA5DBA
:10EF5000DE4F8881C652D1400F940DF2B0E2FB2EF5
:10EF6000F092C6008091C00086FFFCCF8091C00067
:10EF700080648093C0000DE30093C6008091C000C0
:10EF800086FFFCCF8091C00080648093C00010E2B7
:10EF90001093C6008091C00086FFFCCF8091C00016
:10EFA00080648093C0008BBEF3012791C65DDE4F65
:10EFB0002883CA52D140A22EBB24CC24DD2408943D
:10EFC000611C711C811C911C8BBEF3018791282E42
:10EFD0003324442455240894611C711C811C911C09
:10EFE0008BBEF3013791C55DDE4F3883CB52D140E4
:10EFF0000894611C711C811C911C8BBEF30147910C
:10F00000C45DDE4F4883CC52D140ADEFEA2EAFEF66
:10F01000FA2EAFEF0A2FAFEF1A2F6E0C7F1C801E57
:10F02000911E142D032DF22CEE24EA0CFB1C0C1D5A
:10F030001D1D0F940DF220E22093C6008091C000A8
:10F0400086FFFCCF8091C00080648093C000C65DC5
:10F05000DE4F8881CA52D1400F940DF230E23093D6
:10F06000C6008091C00086FFFCCF8091C000806404
:10F070008093C000C45DDE4F8881CC52D1400F9494
:10F080000DF240E24093C6008091C00086FFFCCFA5
:10F090008091C00080648093C000C55DDE4F888190
:10F0A000CB52D1400F940DF250E25093C6008091A4
:10F0B000C00086FFFCCF8091C00080648093C000B8
:10F0C0008FEFE8168FEFF80680E0080780E018075A
:10F0D00031F484E092EE60E00F94C2F1DFC0D80119
:10F0E000C7018070907CA070B0708050904CA040A0
:10F0F000B040D1F52FEF3FE340E050E0E222F322B1
:10F1000004231523CA5DDE4FA880B980CA80DB8046
:10F11000C652D140AE0CBF1CC01ED11EAA0CBB1CD7
:10F12000CC1CDD1C8EE092EE60E00F94C2F1BB2798
:10F13000A12F902F8F2D0F940DF28E2D0F940DF285
:10F1400030E23093C6008091C00086FFFCCF8091F2
:10F15000C00080648093C0004EE34093C60080915D
:10F16000C00086FFFCCF87C08EE09EEFA0E0B0E03D
:10F17000E822F9220A231B239CE0E91694E9F90608
:10F1800090E0090790E0190709F088C0C45DDE4FE0
:10F19000A881CC52D140EA2EFF2400E010E0102FCD
:10F1A0000F2DFE2CEE24C55DDE4FB881CB52D14031
:10F1B000EB0EF11C011D111DD601C501817090706F
:10F1C000A070B070DC0199278827E80EF91E0A1F8D
:10F1D0001B1F20EF30E040E050E0A222B322C42207
:10F1E000D52241E1AA0CBB1CCC1CDD1C4A95D1F7F1
:10F1F000EA0CFB1C0C1D1D1D81E090E0A0E0B0E0BE
:10F20000282239224A225B2235E1220C331C441C7D
:10F21000551C3A95D1F7E20CF31C041D151D57013E
:10F220006801AA0CBB1CCC1CDD1C85E192EE60E0E1
:10F230000F94C2F1C801AA27BB270F940DF2BB2778
:10F24000A12F902F8F2D0F940DF28E2D0F940DF274
:10F2500090E29093C6008091C00086FFFCCF809121
:10F26000C00080648093C000AEE3A093C60080918C
:10F27000C00086FFFCCF8091C00080648093C000F6
:10F28000C601AA27BB270F940DF2BB27AD2D9C2DDD
:10F290008B2D0F940DF28A2D0F940DF20F94DCF14B
:10F2A000CC5DDE4FE881F981C452D140F99709F471
:10F2B0004DCBF4E0EF2EF12C012D112D6E0C7F1CA7
:10F2C000801E911EF2CD83E093EE62E00F94F5F183
:10F2D0008AE192EE60E00F94C2F18091C00087FF56
:10F2E000FCCF1091C6001F751093C6008091C0001E
:10F2F00086FFFCCF8091C00080648093C0000F9493
:10F30000DCF1812F81548A3108F036C1163409F4BA
:10F3100095C0173490F4133409F44EC0143430F40B
:10F320001134F1F0123409F01DC130C0143409F465
:10F3300059C0153409F016C16BC01A3409F4C4C0A1
:10F340001B3438F4173409F48FC0183409F00AC19B
:10F35000A1C01B3409F4D2C01C3409F003C1E8C0B9
:10F360008FEF81B90DC082B1809582B980E090E0C5
:10F37000E0EDF7E03197F1F70196883C9105C1F790
:10F380008091C00087FFEFCF12B8EFC08FEF84B934
:10F390000DC085B1809585B980E090E0E0EDF7E0A3
:10F3A0003197F1F70196883C9105C1F78091C00033
:10F3B00087FFEFCF15B8D9C08FEF87B90DC088B1DF
:10F3C000809588B980E090E0E0EDF7E03197F1F7C3
:10F3D0000196883C9105C1F78091C00087FFEFCF6F
:10F3E00018B8C3C08FEF8AB90DC08BB180958BB9A7
:10F3F00080E090E0E0EDF7E03197F1F70196883C8E
:10F400009105C1F78091C00087FFEFCF1BB8ADC059
:10F410008FEF8DB90DC08EB180958EB980E090E0F0
:10F42000E0EDF7E03197F1F70196883C9105C1F7DF
:10F430008091C00087FFEFCF1EB897C08FEF80BBD1
:10F440000DC081B3809581BB80E090E0E0EDF7E0F6
:10F450003197F1F70196883C9105C1F78091C00082
:10F4600087FFEFCF11BA81C08FEF83BB0DC084B38C
:10F47000809584BB80E090E0E0EDF7E03197F1F714
:10F480000196883C9105C1F78091C00087FFEFCFBE
:10F4900014BA6BC08FEF809301010FC080910201FD
:10F4A00080958093020180E090E0E0EDF7E03197F5
:10F4B000F1F70196883C9105C1F78091C00087FF64
:10F4C000EDCF1092020151C08FEF809304010FC065
:10F4D0008091050180958093050180E090E0E0ED4A
:10F4E000F7E03197F1F70196883C9105C1F78091DB
:10F4F000C00087FFEDCF1092050137C08FEF8093DA
:10F5000007010FC08091080180958093080180E079
:10F5100090E0E0EDF7E03197F1F70196883C910536
:10F52000C1F78091C00087FFEDCF109208011DC088
:10F530008FEF80930A010FC080910B01809580931B
:10F540000B0180E090E0E0EDF7E03197F1F70196F4
:10F55000883C9105C1F78091C00087FFEDCF1092E4
:10F560000B0103C085E292EEEEC98091C00087FFD7
:10F57000FCCF8091C600EAC988E392EEE4C98CE131
:10F5800091EEE1C988249924933011F1943028F444
:10F59000913089F09230B8F408C0953061F195301F
:10F5A000F0F0963009F048C043C02B3109F042C951
:10F5B00091E06BE13FC96227C15DDE4F2883CF52E6
:10F5C000D14092E037C9B22FA0E0622793E032C960
:10F5D000822F90E0A82BB92B622794E02BC92E3004
:10F5E00009F039C3622795E0C05DDE4F19821882A9
:10F5F000C053D1401FC9E1E0F0E0EC0FFD1FC05D3A
:10F60000DE4F08811981C053D140E00FF11F2083E4
:10F610000F5F1F4FC05DDE4F19830883C053D14079
:10F6200062270A171B0709F005C9D80196E002C92D
:10F63000261709F010C303C0973009F0FBC87724E0
:10F640009981933109F412C19431C8F4963009F4C8
:10F65000D8C0973050F4923009F406C1933009F4C1
:10F660006DC0913009F059C253C0913109F477C08F
:10F67000923108F0BBC0903109F04FC2F5C098310B
:10F6800009F487C0993150F4953109F4EFC09531F0
:10F6900008F4C6C1963109F040C2C2C19A3109F4DA
:10F6A0006CC09A3108F491C09B3109F45BC09D3164
:10F6B00009F033C29D81903359F48F81882311F46E
:10F6C0009EE11CC0813011F091E018C098E916C08D
:10F6D000892F807591F0903539F4E0E0F0E089E011
:10F6E0008093570094910AC0983539F4E3E0F0E034
:10F6F00089E080935700949101C090E01A821B82A8
:10F700008D818C831D829E831F8227E030E009C299
:10F710001A8288E08B8381E48C8386E58D8382E581
:10F720008E8389E48F8383E5888780E589878FE5E9
:10F730008A8782E38B872BE030E0F3C18A818139AD
:10F7400041F0823941F0803911F48FE005C080E04A
:10F7500003C082E001C08AE01A828B8344C0772410
:10F76000739482C08D81882311F48EE12CC0813086
:10F7700011F081E028C088E926C01A82E1E0F0E0BB
:10F7800089E08093570084918B831C8224E030E0D1
:10F79000C8C18B81803589F48C81883039F4E2E0EE
:10F7A000F0E089E08093570084910DC0E0E0F0E044
:10F7B00089E080935700849106C0E3E0F0E089E09F
:10F7C0008093570084911A82DFCF8D81836C99E0FA
:10F7D000E1E0F0E0082E90935700E89507B600FCB2
:10F7E000FDCF1A821B8223E030E09BC180EC8A832C
:10F7F000CE5CDE4F188219821A821B82C253D1401E
:10F800008EC18A8190E0A0E0B0E0582F44273327D2
:10F8100022278B8190E0A0E0B0E0DC0199278827C7
:10F82000282B392B4A2B5B2B8D8190E0A0E0B0E098
:10F83000282B392B4A2B5B2B8C8190E0A0E0B0E089
:10F84000BA2FA92F982F8827282B392B4A2B5B2BCF
:10F85000220F331F441F551FC05EDE4F288339839C
:10F860004A835B83C052D1401A8259C13A81C95C34
:10F87000DE4F3883C753D140CA5CDE4F1882C6536F
:10F88000D1408B81C82EDD24CA5CDE4F488159816E
:10F89000C653D140C42AD52A933109F082C0CE5C28
:10F8A000DE4F88819981AA81BB81C253D1408050AB
:10F8B000904CA340B04030F583E0CE5CDE4FE88052
:10F8C000F9800A811B81C253D140F70100935B008C
:10F8D00080935700E89507B600FCFDCFCE5CDE4F65
:10F8E000088119812A813B81C253D14000501F4FAA
:10F8F0002F4F3F4FCE5CDE4F088319832A833B8313
:10F90000C253D140C05EDE4F488159816A817B81FC
:10F91000C052D140DE011B9631E08C9111962C91A2
:10F9200011971296C75CDE4F2883C953D140C85C3B
:10F93000DE4F1882C853D14090E0C85CDE4FE881AA
:10F94000F981C853D1408E2B9F2B0C01FA01609393
:10F950005B0030935700E89511244E5F5F4F6F4F67
:10F960007F4F0EEFE02E0FEFF02ECE0CDF1CC114F8
:10F97000D10499F685E0C05EDE4F088119812A81A5
:10F980003B81C052D140F80120935B008093570027
:10F99000E89507B600FCFDCF81E180935700E8951C
:10F9A00035C0C05EDE4F88819981AA81BB81C0527B
:10F9B000D140B695A795979587957C018601ABE0D8
:10F9C000AA2EB12CAC0EBD1E0BC0D5016D915D01F0
:10F9D000C7010F947FFE0894E11CF11C01501040F8
:10F9E0000115110591F7A60160E070E0440F551F65
:10F9F000661F771FC05EDE4FE880F9800A811B8199
:10FA0000C052D1404E0D5F1D601F711F1A82C05E33
:10FA1000DE4F488359836A837B83C052D1407FC0C5
:10FA2000FA80C55CDE4FF882CB53D140C65CDE4F16
:10FA30001882CA53D1408B81C82EDD24C65CDE4FAC
:10FA400008811981CA53D140C02AD12A1A828981DA
:10FA5000BE016D5F7F4F843121F59601C05EDE4FA0
:10FA6000E880F9800A811B81C052D1400BBFF701A9
:10FA700087919691DB018C9311969C936E5F7F4FDB
:10FA8000D801C7010296A11DB11DC05EDE4F88835B
:10FA90009983AA83BB83C052D14022503040F1F6F3
:10FAA00036C0C05EDE4F288139814A815B81C052F9
:10FAB000D1400894C108D108760100E010E0089414
:10FAC000C11CD11C0894E11CF11C011D111DE20E8A
:10FAD000F31E041F151F21BDBB27A52F942F832FB5
:10FAE00082BD2F5F3F4F4F4F5F4FF89A80B5DB01CC
:10FAF0008D93BD012E153F054007510761F7C05E8C
:10FB0000DE4F288339834A835B83C052D1409601FC
:10FB10002D5F3F4FFB01108204C080EC8A8322E0FE
:10FB200030E08BE18093C6008091C00086FFFCCF5F
:10FB30008091C00080648093C000C15DDE4FF88179
:10FB4000CF52D140F093C6008091C00086FFFCCF19
:10FB50008091C00080648093C000432F3093C60022
:10FB60008091C00086FFFCCF8091C00080648093AC
:10FB7000C000922F2093C6008091C00086FFFCCF6A
:10FB80008091C00080648093C0008EE08093C600A6
:10FB90008091C00086FFFCCF8091C000806480937C
:10FBA000C00065E1C15DDE4FE880CF52D1406E25D7
:10FBB00069276427FE01319610C090819093C6009A
:10FBC0008091C00086FFFCCF31968091C000806498
:10FBD0008093C0006927215030402115310569F715
:10FBE0006093C6008091C00086FFFCCF8091C0006A
:10FBF00080648093C00085B1805885B9772081F4F6
:10FC0000C15DDE4F0881CF52D1400F5FC15DDE4F35
:10FC10000883CF52D14090E0A0E0B0E00D941AF4F8
:10FC200027982F9880E090E020ED37E0F901319798
:10FC3000F1F7019684369105C9F700008091C00064
:10FC40008D7F8093C00081E180935700E895EE2777
:10FC5000FF270994FFCF90E00D941AF497FB092E2B
:10FC600007260AD077FD04D02ED006D000201AF443
:10FC7000709561957F4F0895F6F7909581959F4F08
:10FC80000895A1E21A2EAA1BBB1BFD010DC0AA1FDD
:10FC9000BB1FEE1FFF1FA217B307E407F50720F0F5
:10FCA000A21BB30BE40BF50B661F771F881F991F70
:10FCB0001A9469F760957095809590959B01AC01B9
:10FCC000BD01CF010895AA1BBB1B51E107C0AA1FAC
:10FCD000BB1FA617B70710F0A61BB70B881F991FED
:10FCE0005A95A9F780959095BC01CD010895F99991
:10FCF000FECF92BD81BDF89A992780B50895262F31
:10FD0000F999FECF1FBA92BD81BD20BD0FB6F89400
:0EFD1000FA9AF99A0FBE01960895F894FFCF63
:00000001FF
